:1000000012C05FC029C028C0DDC0F2C025C024C016
:1000100023C022C021C020C01FC01EC01DC01CC0E4
:100020001BC01AC019C011241FBECFEDCDBF10E0F8
:10003000A0E6B0E0ECEEF3E002C005900D92A83629
:10004000B107D9F720E0A8E6B0E001C01D92A337C0
:10005000B207E1F7D9D0C8C1D3CFF894109270009D
:1000600010926F007894089580916A00882329F097
:10007000809172008695817003C0809172008170BA
:1000800090917100992311F091E089270895939A36
:1000900081E080936B002FEF84E39CE0215080404F
:1000A0009040E1F700C00000939810926B002FEF92
:1000B00084E39CE0215080409040E1F700C00000C4
:1000C00008951F920F920FB60F9211242F933F9312
:1000D0004F935F936F937F938F939F93EF93FF93D0
:1000E00096B39F73909540E050E081E033E06AE082
:1000F0002091720029272823FA01EE59FF4F22236D
:1001000099F0208121502083211115C02091720087
:10011000782F709527232093720020917200782FFA
:100120007923272B2093720020917200282311F04D
:10013000608301C03083880F4F5F5F4F46305105A9
:10014000B9F680916800811111C080916F00909183
:10015000700080349C4970F480916F009091700021
:1001600001969093700080936F0004C0109270000D
:1001700010926F00809160009091610005977CF073
:10018000809160009091610001979093610080934D
:10019000600080916000909161009BBD8ABD84E009
:1001A0008EBD1DBC1CBCFF91EF919F918F917F91E3
:1001B0006F915F914F913F912F910F900FBE0F90D4
:1001C0001F9018951F920F920FB60F9211248F93C4
:1001D0009F93809168008111949A81EF9FEF9DBD5C
:1001E0008CBD9F918F910F900FBE0F901F9018950F
:1001F0001F920F920FB60F92112494981EBC0F906D
:100200000FBE0F901F901895CF93DF931F92CDB71D
:10021000DD2788E181BB12BA17BA82E085BF80E48E
:100220008BBF1FBC1EBC80EC89BF8AEF90E09BBDDA
:100230008ABD789480E090E0C3D091E0811101C044
:1002400090E09093710084E19091720092FF0DC054
:1002500061E080917100811160E06093710080E045
:1002600090E0B5D014DF13DFFFCF2FEF30E792E03F
:10027000215030409040E1F700C00000815021F74C
:10028000ECDE8091720083FB882780F980936A00FE
:10029000EBDE80936900BB24B3948AEFE82EF12C47
:1002A000F89480916F0090917000789420916E0086
:1002B000222369F08436910518F010926E0007C071
:1002C0008FE19EE40197F1F700C00000E9CF209193
:1002D0006D00222329F08233910590F310926D0076
:1002E000883E934068F080916C00811109C0B5DEB2
:1002F000939810926B00B0926D00B0926C00D0CFCA
:10030000D0906A00209172008D2D90E023FB002791
:1003100000F910E08017910759F09FDE809172007C
:1003200083FB882780F980936A00B0926E000CC02E
:100330009BDEC0906900C81651F089838EDE8981EA
:1003400080936900B0926D0010926800A9CFD1101F
:1003500004C08091720082FFF7CF80917200CC20A0
:1003600019F084FF03C008C085FD06C080916800B5
:10037000882351F372DEE8CF80916800811190CF1D
:1003800080916C00811104C080916B00C81679F0D7
:1003900064DECC2021F0939AB0926B0003C0939856
:1003A00010926B0010926C00B0926D0079CFF092B9
:1003B0006100E0926000FBBCEABCB092680070CFC4
:1003C000E199FECF8EBBE09A99278DB30895262F31
:1003D000E199FECF1CBA8EBB2DBB0FB6F894E29A02
:0C03E000E19A0FBE01960895F894FFCF3B
:0803EC00FA000A0A0A0A0A0AD3
:00000001FF
